:1008F60020205374617274696E6720000000000046
:100906000000000000000000000000000000204C75
:100916006F772077617465720000000000000000A8
:10092600576174657220456E6F7567682000000018
:10093600000057617465722052657175697265644D
:10094600004E6F205761746572204E65656465645C
:04095600000000009D
:050ACA00D290C2912250
:070A0700120A9A7F0A7E002B
:100A0E00E4FDFCC3ED9FEC9E5015E4FBFA0BBB001E
:0F0A1E00010ABA04F8BBFBF50DBD00010C80E422
:010A2D0022A6
:100A9A008FA0C2B2C2B3D2B47F017E00120A0EC2C4
:020AAA00B42274
:100AAC008FA0D2B2C2B3D2B47F017E00120A0EC2A2
:020ABC00B42262
:0E095A007D007BFF7F127E001208D09000000F
:100968007F38120A077F06120A077F01120A077FDB
:100978000F120A077F81120A9A7F0A7E00020A0E66
:1009DE0078087C007D007BFF7A0879F67F1E12096D
:1009EE0060AF8274082FF8E6FF600D120AACA37F89
:0809FE00017E00120A0E80E9DF
:010A060022CD
:100A540078087C007A09791412095AAF8274082F35
:100A6400F8E6FF600D120AACA37F197E00120A0E8D
:020A740080E917
:010A7600225D
:100A770078087C007A09792612095AAF8274082F00
:100A8700F8E6FF600D120AACA37F197E00120A0E6A
:020A970080E9F4
:010A9900223A
:1009880078087C007D007BFF7A0979387E007F0F2C
:10099800120962AF8274082FF8E6FF600D120AACE4
:0A09A800A37F197E00120A0E80E9F9
:0109B2002222
:1009B30078087C007D007BFF7A0979477E007F13EE
:1009C300120962AF8274082FF8E6FF600D120AACB9
:0A09D300A37F197E00120A0E80E9CE
:0109DD0022F7
:100A2E00120ACA1209DE30900DD291120A54120A1D
:100A3E000A12098880F02090EDC291120A77120AEC
:060A4E000A1209B380E06A
:03000000020ABE33
:0C0ABE00787FE4F6D8FD758125020A2E31
:10080000E709F608DFFA8046E709F208DFFA803EDA
:1008100088828C83E709F0A3DFFA8032E309F608C7
:10082000DFFA8078E309F208DFFA807088828C832F
:10083000E309F0A3DFFA806489828A83E0A3F608E3
:10084000DFFA805889828A83E0A3F208DFFA804CBD
:1008500080D280FA80C680D4806980F28033801094
:1008600080A680EA809A80A880DA80E280CA8033FD
:1008700089828A83ECFAE493A3C8C582C8CCC58375
:10088000CCF0A3C8C582C8CCC583CCDFE9DEE78045
:100890000D89828A83E493A3F608DFF9ECFAA9F0C4
:1008A000EDFB2289828A83ECFAE0A3C8C582C8CC1A
:1008B000C583CCF0A3C8C582C8CCC583CCDFEADE33
:1008C000E880DB89828A83E493A3F208DFF980CC95
:1008D00088F0EF60010E4E60C388F0ED2402B4048E
:1008E0000050B9F582EB2402B4040050AF23234535
:0608F00082239008507302
:00000001FF
